:0423720041017E00A7
:10222300122F97122FC17F011227E6122F69D2AF07
:1022330012149012307C90FFFF1205A37401F0FB7F
:102243007A0079FC90FFFD1205A312049C7B007AAF
:1022530000790090FFFD1205A312049C7BFF7A2DE9
:1022630079F8121D7D90FFFF1205A37402F07B0124
:102273007A01793D90FFFD1205A312049C7B007A3D
:1022830000790090FFFD1205A312049C7BFF7A2CBA
:1022930079C5121D7D90FFFF1205A37403F07B0126
:1022A3007A01797F90FFFD1205A312049C7B007ACB
:1022B30000790090FFFD1205A312049C7BFF7A2D89
:0822C300797A121D7D02291D2C
:102DF80090FFFD1205A312049C851283851382128D
:102E0800047C85128385138212049CD2A9B2CD7EDC
:082E1800007F6412270280F51F
:102CC50090FFFD1205A312049C85128385138212C1
:102CD500047C85128385138212049C90017EE0B4E6
:0E2CE500010312251E7E007F6412270280ED7F
:102D7A0090FFFD1205A312049C851283851382120B
:102D8A00047C85128385138212049C122F801220E0
:0A2D9A008A7E007F0A12270280F4EF
:0300000002240ACD
:0C240A00751204751300758150022451F6
:05001E00D4DDCDA300BC
:1023760042028600004A02AC000000000000000095
:10238600000041029E0041029F004102B800410246
:06239600880041028900ED
:102FE9007FA07E86B2C2EF1F70011E144E70F7B229
:012FF900C215
:012FFA0022B4
:1022CB00900225EFF090029FE0701D900225E02414
:1022DB00CB601224FD60092406700D122F4F80086D
:1022EB00122F168003122DA490029FE064017049F7
:1022FB00900225E012057D231E3123233223283340
:10230B00232D34233235233736233C3723413800F2
:10231B00002344122FAD8021120003801C122BEEE0
:10232B00801712308B8012120018800D12309180A2
:10233B0008123073800312308590029FE0B40214B0
:10234B00900225E024C9600924067008122FAD8085
:10235B000312307390029FE0B4030B900225E0242C
:07236B00C77003122CF322DE
:102F4F00122FE99002B8E07003F080069002B8E00B
:0A2F5F0014F09002B8E0FF022F33D7
:102F1600122FE99002B8E0B401057401F080069022
:0D2F260002B8E004F09002B8E0FF022F3383
:102DA400122FE99002B8E0700890029F04F0121FFD
:102DB400A39002B8E0B4011190017E7401F0E49094
:0A2DC40002B8F090029F7402F022A2
:06000300122FE9022EF8A5
:06308500122FE902303DAC
:06308B00122FE902304C97
:06309100122FE9022ED906
:102CF300900289E0B4012690029F7401F0E49002EF
:102D030089F075AF047F38122D3C7F0C122D3C7F68
:0E2D130006122D3C7B087D037F0612300D2238
:102BEE0078267C027D017BFF7A00791E7E007F05B0
:102BFE00120136122FE9900289E0703490029F7410
:102C0E0003F09002897401F0E4F5AF7F38122D3C89
:102C1E007F0C122D3C7F06122D3C7B087D037F0618
:102C2E0012300D7B017A0279267D037F06122E204B
:012C3E002273
:102FAD00122FE9E490029FF090017EF0F5AF123000
:042FBD0097022F80C8
:09307300122FE9122FAD022DA469
:03001800022FE9CB
:0F302E0043AF049002ECE4F0A37432F002249656
:10301E00313233263435362537383928301B0D27D3
:10239C005002DA01010101010101010101010101F8
:1023AC000101014102B9005002BAFFFFFFFFFFFF1C
:1023BC00FFFFFFFFFFFFFFFFFFFF5002CA010101FC
:0D23CC0001010101010101010101010101F7
:101B09009002B9E0FF25E025E024BAF582E4340229
:101B1900F583E025E0FEA2A5E4334EFEEF25E0259E
:101B2900E024BAF582E43402F583EEF09002B9E0DC
:101B3900FF25E025E024BBF582E43402F583E025A6
:101B4900E0FEA2A6E4334EFEEF25E025E024BBF536
:101B590082E43402F583EEF09002B9E0FF25E02536
:101B6900E024BCF582E43402F583E025E0FEA2A777
:101B7900E4334EFEEF25E025E024BCF582E434028F
:101B8900F583EEF09002B9E0FF25E025E024BDF5EC
:101B990082E43402F583E025E0FEA2A4E4334EFE9C
:101BA900EF25E025E024BDF582E43402F583EEF06B
:101BB900E4FF9002B9E0FE25E025E024BAF582E4CD
:101BC9003402F583E5822FF582E43583F583E05409
:101BD9000FFDBD0F1DEE25E025E024DAF582E43482
:101BE90002F583E5822FF582E43583F5837401F0EC
:101BF900801DED701AEE25E025E024DAF582E43443
:101C090002F583E5822FF582E43583F583E4F00F4D
:101C1900EFB4049E9002B9E004F0E05403F01460BC
:101C29000F14601114601324037013D2A0C2A322ED
:0E1C3900D2A3C2A222D2A2C2A122D2A1C2A0D4
:011C4700227A
:10208A00E4900223F0E4900224F0900224E0C39446
:10209A0004400302214CE0FF900223E0FE25E025E4
:1020AA00E024CAF582E43402F583E5822FF582E45E
:1020BA003583F583E0FDEE25E025E024DAF582E4B8
:1020CA003402F583E5822FF582E43583F583E0FF58
:1020DA006D6066EF7026900224E0FF900223E025EF
:1020EA00E025E0241EF582E43430F583E5822FF5FD
:1020FA0082E43583F583E493FF1222CB900224E035
:10210A00FF900223E0FE25E025E024DAF582E4349C
:10211A0002F583E5822FF582E43583F583E0FDEE4F
:10212A0025E025E024CAF582E43402F583E5822F0E
:10213A00F582E43583F583EDF0900224E004F002A1
:10214A002094900223E004F0E0C394045003022098
:01215A008FF5
:01215B002261
:102FFB007580FFC2B5D2B6D2B7AF80C2B7EF20E7AC
:01300B00F6CE
:01300C0022A1
:102D21007F34122D3C9002F3E02480FF122D3C9061
:0B2D310002F2E02480FF122D3C7F30F6
:102D3C00AE07122FFBC2B5C2B6AF068F80D2B7C298
:022D4C00B722AC
:102FC1007F38122D3C7F0C122D3C7F06122D3C7F49
:042FD10001022D3C90
:102A3C00E075F002A4FBAAF0A3E075F010A42BFF44
:102A4C00E5F03AFEED2FF582EC3EF583E493FF12B0
:102A5C002A869002F2E075F002A4FBAAF0A3E075BE
:102A6C00F010A42BFFE5F03ACF2401CF3400FEED9B
:0A2A7C002FF582EC3EF583E493FF92
:102A8600AE07122FFBD2B5C2B6AF068F80D2B7C241
:022A9600B72265
:102DCE00ED7006EF2480FC801CEDB40106EF24901C
:102DDE00FC8012EDB40206EF2488FC8008EDB403EB
:0A2DEE0004EF2498FCAF04022D3C12
:102E200090025E12049C122DCE90025E12047C125F
:102E3000015C601390025EE475F0011204851201DA
:082E40005CFF122A8680E222E9
:10300D00122DCEAF031BEF60077F20122A8680F3AF
:01301D002290
:053097007F01022D3C49
:102F9700E4F594F593F592F591F596F595F5B2F577
:062FA700B1F5B4F5B32200
:10268E00AD07AC06E49002F3F0E49002F2F0122DE6
:10269E0021122A3C9002F2E004F0E0C3940840EECE
:1026AE009002F3E004F0E0C3942040DD9002F37456
:1026BE0020F0E49002F2F07F34122D3C9002F3E011
:1026CE002460FF122D3C9002F2E02488122D361267
:1026DE002A3C9002F2E004F0E0C3940840D9900244
:1026EE00F3E004F0E0C3944040C87F36122D3C7FE7
:0426FE0030022D3C3D
:1025A000E49002F3F0E49002F2F0122D21E4FF1225
:1025B0002A86E4FF122A86E004F0E0C3940840EA89
:1025C0009002F3E004F0E0C3942040D99002F37449
:1025D00020F0E49002F2F07F34122D3C9002F3E000
:1025E0002460FF122D3C9002F2E02488122D36E484
:1025F000FF122A86E4FF122A86E004F0E0C3940862
:1026000040D59002F3E004F0E0C3944040C47F362C
:08261000122D3C7F30022D3C2D
:102F3300900226EFF0122D4E122C84900226E014FC
:0C2F430060060470060229DE122A9822A3
:1029DE009002F3741CF07F34122D3C7F9C122D3C20
:1029EE007F85122D37E4FF122A867FFF122A8690EA
:1029FE0002F27406F0122D217FFF122A867FFF123B
:102A0E002A86E004F0E0C3940740EA7F34122D3C9E
:102A1E007F9C122D3C7F87122D377FFF122A86E472
:0E2A2E00FF122A867F36122D3C7F30022D3C8F
:102D4E009002F3741CF09002F27405F0122D21E43F
:102D5E00FF122A86E4FF122A86E004F0E0C39408EC
:0C2D6E0040EA7F36122D3C7F30022D3CE5
:102A98009002F37432F07F34122D3C7FB2122D3C39
:102AA8007F85122D37E4FF122A867FFF122A86902F
:102AB80002F27406F07F34122D3C9002F3E0246099
:102AC800FF122D3C9002F2E02488122D367FFF126F
:102AD8002A867FFF122A86E004F0E0C3940740D5D7
:0A2AE8007F36122D3C7F30022D3C9A
:102C84009002F37432F09002F27405F07F34122D46
:102C94003C9002F3E02460FF122D3C9002F2E02409
:102CA40088122D36E4FF122A86E4FF122A86E004F5
:102CB400F0E0C3940740D57F36122D3C7F30022DBF
:012CC4003CD3
:0A000E0025303364004C4F534500C9
:0A23D9004202EA00004202EC00326A
:09307C005389F0438901D28C2232
:0227E600AB073F
:1027E800900223120439000E1000AF03E4FCFDFE32
:1027F8009002231203FC1202B4E47BE87A03F9F88E
:1028080012033F9002231204149002231203FCC304
:10281800E49BFFE49AFE740199FDE498FC9002237E
:102828001204149002231203F078081203D18F8D3A
:102838009002231203F08F8B9002EEE58DF0A3E552
:0C2848008BF05389F0438901D2ABD28E93
:012854002261
:03001B00022C3F75
:102C3F00C0E0C0F0C083C082C0D075D000C000C05B
:102C4F0001C002C003C004C005C006C0079002EE59
:102C5F00E0F58DA3E0F58B121B09D007D006D00548
:102C6F00D004D003D002D001D000D0D0D082D083F6
:052C7F00D0F0D0E032AE
:102F6900538EFB75D6FC75D7679002F0E5D6F0A3B2
:072F7900E5D7F0438E1022A2
:030063000228BBB5
:1028BB00C0E0C0F0C083C082C0D075D000C000C0E3
:1028CB0001C002C003C004C005C006C0079002F0DF
:1028DB00E0F5D6A3E0F5D79002EAE475F00112011A
:1028EB00D69002EAE0B4030FA3E0B4E80A122496F0
:1028FB009002EAE4F0A3F0D007D006D005D004D0C4
:10290B0003D002D001D000D0D0D082D083D0F0D071
:02291B00E032A8
:102496007F38122D3C7F0C122D3C7F06122D3C7B83
:1024A600FF7A00790E90026112049C9002EC74FF90
:1024B600F5F01201ECAFF0900264F0A3EFF07B01AF
:1024C6007A027956120B117B087D037F0412300DB8
:1024D6007B017A0279567D037F04122E209002EC4E
:1024E600E0B4FF33A3E0B4FF2E7BFF7A00791390AC
:1024F600026112049C7B017A027956120B1112308A
:10250600977B017A0279567D037F03122E20E4F52C
:07251600AF90029F7402F078
:01251D00229B
:1005F200B5C3B7D63A2530336400594F5520574911
:100602004E21000000000000000000000000000079
:1006120000000000000000000000000000000000D8
:1006220000000000000000000000000000000000C8
:1006320000000004100000000000000000000000A4
:10064200000000042600000000000000000000007E
:100652000000000442000000000000000000000052
:100662000000001EDF00000000000000000000008B
:10067200000000054400000000000000000000002F
:100682000000000444000000000000000000000020
:10069200000000045F800000000000000000000075
:1006A20000000006440000000000000000000000FE
:1006B2000000000C440000000000000000000000E8
:1006C200000000745F8000000000000000000000D5
:1006D20000000004440000000000000000000000D0
:1006E20000000004440000000000000000000000C0
:1006F20000000014440000000000000000000000A0
:100702000000000C44000000000000000000000097
:100712000000000CDF80000000000000000000006C
:1007220000000000000000000000000000000000C7
:1007320000000000000000000000000000000000B7
:100742000000000003FFFFF000000000000007BEF1
:10075200673E000003FFFFF00000000000000408F5
:100762009488000003C0007000000000000004082C
:100772009488000003C000F0000000000000078819
:1007820097080000036001B000000000000000882C
:10079200F4880000033003300000000000000088ED
:1007A2009488000003180E30000000000000078843
:1007B20094880000030FFC300000000000000000DD
:1007C20000000000030FF8300000000000000000ED
:1007D20000000000030C18300000000000000000C0
:1007E20000000000030C18300000000000000000B0
:1007F20000000000030C18300000000000000000A0
:1008020000000000030FF8300000000000000000AC
:1008120000000000030FFC30000000000000000098
:100822000000000003180630000000000000000075
:1008320000000000033003B00000000000000000D0
:1008420000000000036000F0000000000000000053
:100852000000000003C00070000000000000000063
:100862000000000003FFFFF0000000000000000095
:100872000000000003FFFFF0000000000000000085
:100882000000000000000000000000000000000066
:100892000000000000000000FF0000000000000057
:1008A200000000000000000001000000000000093C
:1008B2003C000000000000000100000000000009F0
:1008C20020000000000000000600000000000009F7
:1008D20020000000000000000C00000000000009E1
:1008E2003C000000000000000800000000000009B9
:1008F2000400000000000007FFF0000000000009F3
:100902000400000000000000080000000000000FCA
:100912003C00000000000000080000000000000091
:1009220000000000000000000800000000000000BD
:1009320000000000000000000800000000000000AD
:10094200000000000000000008000000000000009D
:10095200000000000000000008000000000000008D
:10096200000000000000000008000000000000007D
:10097200000000000000000008000000000000006D
:10098200000000000000000028000000000000003D
:10099200000000000000000018000000000000003D
:1009A2000000000000000000000000000000000045
:1009B2000000000000000000000000000000000035
:1009C2000000000000000000000000000000000025
:1009D2000000000000000000000000000000000015
:1009E2000000000000000000000000000000000005
:1009F20000000000000000000000000000000000F5
:100A02000000004C4344313238363400CDC6CFE4C6
:100A1200D7D300425920415026597500FFFFFFFFEE
:100A2200FFFFFFFF010101010101010101010101BC
:100A320000020101010100000300010101010001A6
:100A42000001010101000001000104010100010097
:100A5200000304010100030000000401010101017F
:100A620001010101FF818181818181FFC381240014
:100A7200243C81C3FF422418182442FFFFE7E78188
:100A820081E7E7FFCEE22A2A00332A2A32303532C2
:100A9200303531382A2A00D6EC2A2A00332A2A3263
:0A0AA200303532303531382A2A0091
:1023E300500211FFFF0000000100000000FFFF008A
:1023F3000000014C01C100040006000500060006B0
:0624030000064101C006C5
:102FD5007F36122D3C7F36122D3C7F3E122D3C7FD5
:042FE50001022D3C7C
:101C4800FCE0FB75F008A424D1F582E43401F583A7
:101C5800E5822CF582E43583F583E0FDEB75F00829
:101C6800A424D2F582E43401F583E5822CF582E4DC
:101C78003583F583E0FBEE900235F0A3EFF0E4FF47
:081C8800900233EDF0A3EBF034
:101C9000EF90023770057480F080037488F0E49050
:101CA0000238F0900238E0FFC394084003021D7C24
:101CB000EF2480FF900236E075F008A42FFF122D6C
:101CC0003C900235E0FF900237E02FFF122D3C9050
:101CD0000233E07009900238E0900A1E803E9002C4
:101CE00033E0B40109900238E0900A66802E900239
:101CF00033E0B40209900238E0900A6E801E900230
:101D000033E0B40309900238E0900A76800E900226
:101D100033E0B4040C900238E0900A7E93FF122A5C
:101D200086900234E07009900238E0900A1E803EEE
:101D3000900234E0B40109900238E0900A66802EE7
:101D4000900234E0B40209900238E0900A6E801EDE
:101D5000900234E0B40309900238E0900A76800ED5
:101D6000900234E0B4040C900238E0900A7E93FFB5
:0C1D7000122A86900238E004F0021CA346
:011D7C002244
:10164100E490022EF0E490022FF090022EE025E0CB
:10165100FF900230F090022FE0FE25E0900231F081
:10166100E0900230121C4890022EE025E004FF9029
:101671000230F0FE90022FE0FC25E0900231F0E014
:10168100FBEE75F008A424D1F582E43401F583E57D
:10169100822BF582E43583F583E0FDEE75F008A435
:1016A10024D2F582E43401F583E5822BF582E43519
:1016B10083F583E0FBEC121C7F90022FE004F0E045
:1016C100C39404408590022EE004F0E0C3940250DC
:1016D1000302164690022E7402F0E490022FF0905D
:1016E100022EE0FF25E0900230F090022FE0FE256F
:1016F100E0900231F0E0FC900230E0FB75F008A4CC
:1017010024D1F582E43401F583E5822CF582E435B8
:1017110083F583E0FDEB75F008A424D2F582E4346F
:1017210001F583E5822CF582E43583F583E0FB90B6
:101731000235EEF0EF24FE25E0A3F07F01121C88B4
:1017410090022EE0FF25E004FE900230F090022F7F
:10175100E0FC25E0900231F0E0FBEE75F008A424F6
:10176100D1F582E43401F583E5822BF582E43583FA
:10177100F583E0FDEE75F008A424D2F582E434018E
:10178100F583E5822BF582E43583F583E0FB900256
:1017910035ECF0EF25E024FDA3F07F01121C8890C9
:1017A100022FE004F0E0C3940450030216E090021B
:1017B1002EE004F0E0C3940450030216DB122FC1A3
:1017C1007BFF7A0A7905E4FD7F04122E207BFF7AE4
:1017D1000A790E7D017F04122E207BFF7A0A79158A
:0717E1007D027F04022E20AF
:102E48007F34122D3C7FB2122D3C7F87122D3C7FA0
:102E580030122D3CE4FF122A86E4FF122A867F36C0
:082E6800122D3C7F30022D3CCD
:10297F00122FD59001CDE4F0A304F0A3E4F0A374DB
:10298F0005F0900221E4F0A37403F0E4FFE4FEEFFE
:10299F0075F008A42426F582E4340AF583E5822E27
:1029AF00F582E43583F583E493FDEF75F008A424F5
:1029BF00D1F582E43401F583E5822EF582E4358387
:0E29CF00F583EDF00EEEB408C60FEFB408BFAE
:0129DD0022D7
:1017E8009001CDE0FEA3E0FFA3E0FCA3E0FD7A00BA
:1017F800900226EEF0A3EFF0A3ECF0A3EDF0A3EA3D
:04180800F0A3EBF06E
:10180C0090022AE0FEA3E07802C333CE33CED8F99F
:10181C00FBAA062411F58274023AF583E0FEA3E0DC
:10182C00FF900227E02FFF900226E03E90022CF062
:10183C00A3EFF074132BF58274023AF583E0FEA348
:10184C00E0FF900229E02FFF900228E03E90022E4C
:10185C00F0A3EFF090022CE0FEA3E07803C333CEAC
:10186C0033CED8F924D1F58274013EF583C083C000
:10187C008290022EE0FEA3E0D082D0832582F582F6
:10188C00E5833EF583E0FF6003B404037F012290FF
:10189C00022CE0FEA3E07803C333CE33CED8F92478
:1018AC00D1F58274013EF583C083C08290022EE094
:1018BC00FEA3E0D082D0832582F582E5833EF583BA
:1018CC00E0FEB401037F0022EE640360030219887A
:1018DC0090022AE0FEA3E07802C333CE33CED8F9CF
:1018EC00FBAA062411F58274023AF583E0FEA3E00C
:1018FC00FF90022DE02FFF90022CE03E900230F082
:10190C00A3EFF074132BF58274023AF583E0FEA377
:10191C00E0FF90022FE02FFF90022EE03EAD07FC7F
:10192C00900230E0FEA3E07803C333CE33CED8F977
:10193C0024D1F58274013EF583E5822DF582E58391
:10194C003CF583E0FF64016004EFB403037F0022E5
:10195C00900230E0FEA3E07803C333CE33CED8F947
:10196C0024D1F58274013EF583E5822DF582E58361
:0E197C003CF583E06003B404037F02227F0089
:01198A00223A
:0A198B009001CDA3E0FFA3A3E0FD4F
:08199500900228EFF0A3EDF031
:10199D007F3E122D3C900228E0FFC39404400302C9
:1019AD001A34EFC313FF90022AF0900229E0C313FB
:1019BD0090022BF0EF25E0FFA3F090022BE0FE2527
:1019CD00E090022DF0E090022C121C4890022AE0CB
:1019DD0025E004FF90022CF0FE90022BE0FC25E0A8
:1019ED0090022DF0E0FBEE75F008A424D1F582E411
:1019FD003401F583E5822BF582E43583F583E0FD33
:101A0D00EE75F008A424D2F582E43401F583E58265
:101A1D002BF582E43583F583E0FB900235ECF0A3E2
:101A2D00EFF0E4FF021B05900228E0C31390022A99
:101A3D00F0900229E0C31390022BF090022AE0FFF0
:101A4D0025E090022CF090022BE0FE25E090022D77
:101A5D00F0E0FC90022CE0FB75F008A424D1F58297
:101A6D00E43401F583E5822CF582E43583F583E0DA
:101A7D00FDEB75F008A424D2F582E43401F583E57D
:101A8D00822CF582E43583F583E0FB900235EEF090
:101A9D00EF24FE25E0A3F07F01121C8890022AE0BE
:101AAD00FF25E004FE90022CF090022BE0FC25E0D7
:101ABD0090022DF0E0FBEE75F008A424D1F582E440
:101ACD003401F583E5822BF582E43583F583E0FD62
:101ADD00EE75F008A424D2F582E43401F583E58295
:101AED002BF582E43583F583E0FB900235ECF0EFC6
:0B1AFD0025E024FDA3F07F01121C88EF
:011B080022BA
:0A0E1100900227EDF0900226EFF0AA
:100E1B0064016003020F329001CDE0FEA3E0780382
:100E2B00C333CE33CED8F92426F582740A3EF5832C
:100E3B00C083C0829001CFE0FCA3E0FDD082D083C1
:100E4B002582F582E5833CF583E493B40428900175
:100E5B00CDE0FEA3E07803C333CE33CED8F924D153
:100E6B00F58274013EF583E5822DF582E5833CF531
:100E7B00837404F080339001CDE0FEA3E07803C3CC
:100E8B0033CE33CED8F924D1F58274013EF583C02D
:100E9B0083C0829001CFE0FEA3E0D082D083258275
:100EAB00F582E5833EF583E4F012198B900227E07F
:100EBB00FF25E025E02411F582E43402F583E0FC04
:100ECB00A3E0FD9001CDEC8DF01201D6EF25E025CE
:100EDB00E02413F582E43402F583E0FEA3E0FF90F7
:100EEB0001CFEE8FF01201D69001CDE0FCA3E0FD17
:100EFB00AE047803C333CE33CED8F924D1F5827444
:100F0B00013EF583C083C0829001CFE0FAA3E0FBE2
:100F1B00D082D0832582F582E5833AF5837402F083
:100F2B00AF05AD0302109E900226E064026003023F
:100F3B0010A19001CDE0FEA3E07803C333CE33CEF6
:100F4B00D8F92426F582740A3EF583C083C08290BB
:100F5B0001CFE0FCA3E0FDD082D0832582F582E5B2
:100F6B00833CF583E493B404289001CDE0FEA3E029
:100F7B007803C333CE33CED8F924D1F58274013E36
:100F8B00F583E5822DF582E5833CF5837404F080CF
:100F9B00339001CDE0FEA3E07803C333CE33CED83C
:100FAB00F924D1F58274013EF583C083C082900190
:100FBB00CFE0FEA3E0D082D0832582F582E5833E8D
:100FCB00F583E4F012198B900227E0FF25E025E072
:100FDB002411F582E43402F583E0FCA3E0FD9001DB
:100FEB00CDEC8DF01201D6EF25E025E02413F58230
:100FFB00E43402F583E0FEA3E0FF9001CFEE8FF027
:10100B001201D69001CDE0FCA3E0FDAE047803C342
:10101B0033CE33CED8F924D1F58274013EF583C09B
:10102B0083C0829001CFE0FAA3E0FBD082D083256E
:10103B0082F582E5833AF5837402F0AF05AD0312B6
:10104B001995900227E0FF25E025E02411F582E4B5
:10105B003402F583A3E0FE9001CDA3E02EFEEF2535
:10106B00E025E02413F582E43402F583A3E0FF903E
:10107B0001CFA3E02FFDEE75F008A424D1F582E497
:10108B003401F583E5822DF582E43583F583740312
:06109B00F0AF06121995EA
:0110A100222C
:102F80001225A07E067F0512268E1229DE9002EC05
:072F9000E4F0A37432F0220B
:102EF8009001CDE0FEA3E0FFA3E0FCA3E0FDE4FB2E
:0E2F0800FA1217F89001C0EFF0E4FD020E116E
:0F303D007B011217E89001C0EFF07D01020E1128
:0F304C007B021217E89001C0EFF07D02020E1117
:102ED9009001CDE0FEA3E0FFA3E0FCA3E0FD7B03AE
:0F2EE9007A001217F89001C0EFF07D03020E116E
:101FA3001225A043AF0412297F121641122E48E4D2
:101FB300FDFCEC25E025E024C1F582E43401F58342
:101FC300E0FEA3E07803C333CE33CED8F924D1F5B2
:101FD3008274013EF583C083C0829001C3E0FEA3F7
:101FE300E0D082D0832582F582E5833EF583E0B499
:101FF30003060D0CECB403BA900221E07003A3E0D6
:102003006D600512208A80A77F38122D3C7F0C1249
:102013002D3C7F06122D3CE4F5AF7BFF7A0579F268
:1020230090026112049C9002ECE0FFA3E090026432
:10203300CFF0A3EFF07B017A027926120B117B011B
:102043007A0279267D027F04122E207BFF7A05799E
:10205300FC90026112049C9002ECE0FFA3E090026A
:1020630064CFF0A3EFF07B017A027926120B117B88
:10207300017A0279267D037F04122E2090029F7439
:0720830002F012208A80FB2D
:10251E0078237C027D017BFF7A0A79867E007F0517
:10252E0012013678287C027D017BFF7A0A798B7E38
:10253E00007F0E12013678367C027D017BFF7A0A0F
:10254E0079997E007F05120136783B7C027D017BF6
:10255E00FF7A0A799E7E007F0E1201361225A07B2D
:10256E00017A027923E4FDFF122E207B017A027993
:10257E00287D01E4FF122E207B017A0279367D023E
:10258E00E4FF122E207B017A02793B7D03E4FF02E9
:02259E002E20ED
:101E9B000102040810204080000001000200010034
:101EAB000300010002000100040001000200010018
:101EBB000300010002000100050001000200010007
:101ECB0003000100020001000400010002000100F8
:101EDB0003000100020001000600010002000100E6
:101EEB0003000100020001000400010002000100D8
:101EFB0003000100020001000500010002000100C7
:101F0B0003000100020001000400010002000100B7
:101F1B0003000100020001000700010002000100A4
:101F2B000300010002000100040001000200010097
:101F3B000300010002000100050001000200010086
:101F4B000300010002000100040001000200010077
:101F5B000300010002000100060001000200010065
:101F6B000300010002000100040001000200010057
:101F7B000300010002000100050001000200010046
:101F8B000300010002000100040001000200010037
:081F9B00030001000200010037
:0614900090FFF51205A318
:10149600120009E4782FF67825F6784EF67824F6C9
:1014A600784A12042000000000784612042000004A
:1014B6000000E47823F67B017A0079FB85128385A8
:1014C6001382A3A312049C851283851382E4F0A3DE
:1014D600F0851283851382E0FEA3E0C39401EE94A7
:1014E600005021851283851382A3A3E475F00112AF
:1014F6000485E41201A285128385138275F0011218
:1015060001D680CDE4784FF608F6FBFAF97830126A
:101516000473782C1204737826120473851283855B
:101526001382E4F0A3F0851283851382E0FEA3E024
:10153600FFC39406EE940050207B007A007900EFFA
:1015460075F003A42433F81204738512838513827D
:10155600E475F0011201D680CD7B017A0079009006
:1015660000051205C712049C7B017A0079119000D0
:10157600081205C712049C851283851382E4F0A322
:10158600F0851283851382E0FEA3E0C3940AEE94ED
:101596000050499000081205C712047CC003C0021F
:1015A600C0019000051205C712047C9000031205C5
:1015B600249000051205C7A3E475F0111201D69018
:1015C60000081205C7A3E475F0111201D68512832F
:1015D600851382E475F0011201D680A57B007A009E
:1015E6007900C003C002C0019000051205C71204AD
:1015F6007C9000031205247B017A00790078291279
:10160600047390FFFF1205A37405F07B017A00793D
:10161600BB90FFFD1205A312049C7B007A007900A3
:1016260090FFFD1205A312049C7BFF7A0079261217
:051636001D7D12000AF9
:06163B0090000B0205A364
:0E305B00C2AF782FE6C394FF500106D2AF2219
:10277600C2AF782FE6D39400400116782FE6705D3D
:102786007825E670587823E6901EA3937845F6E6FA
:10279600FF24FBF582E43400F583E0901EA393FE4C
:1027A600EF33333354F8FFEE2FFF7850F618E66F09
:1027B600602B08E675F003A42433F812046A783017
:1027C60012047378461203E4EF2401FFE43EFEE4AC
:1027D6003DFDE43CFC7846120408123069D2AF2273
:06291D0090FFFE1205A36D
:102923007824E6705118E6901EA3938512838513CD
:1029330082F0E0FF24FBF582E43400F583E0901E8F
:10294300A393851283851382A3F0EF33333354F8B3
:10295300FF851283851382A3E02F7850F618F6754E
:10296300F003A42433F812046A7830120473782C29
:06297300120473122B4A4E
:062979009000020205A31C
:06215C0090FFFD1205A337
:10216200120062782612046A851283851382120491
:102172009C85128385138212047C90000C120175D7
:102182006405700302221DC2AF90000912020245CB
:10219200F0606B85128385138212047C90000974AF
:1021A200FFF5F012023A45F0705490000B120175DF
:1021B20020E338900010120175782346F690000E45
:1021C20012017524FBF582E43400F583C083C082DA
:1021D200E0FF85128385138212047C90000F1201A6
:1021E20075FEEF4ED082D083F08013851283851363
:1021F2008212047C900009E475F0011202878512B4
:102202008385138212047C9000031204F4851283E6
:0B22120085138212049CD2AF022173DE
:06221D009000030205A37E
:0626180090FFFF1205A374
:10261E00C2AF782FE670617825E6705C7823E6907D
:10262E001EA393851283851382F0E0FF24FBF582AF
:10263E00E43400F583E0901EA393FEEF333333545E
:10264E00F8FFEE2FFF7850F618E66F602B08E67550
:10265E00F003A42433F812046A7830120473784617
:10266E001203E4EF2401FFE43EFEE43DFDE43CFCF6
:0A267E007846120408122855D2AF66
:062688009000010205A311
:1000260090FFFD1205A312049C851283851382128C
:10003600047C85128385138212049CC2AF784A120F
:1000460003E4EF2401FFE43EFEE43DFDE43CFC78DE
:0B0056004A120408D2AF12309C80E078
:1010A20090FFFD1205A312049C90FFFF1205A3EF0F
:0710B200F090FFFD1205A301
:1010B900C2AF782912046A85128385138212049CAF
:1010C90085128385138212047CE94A4B700302124C
:1010D900AA85128385138212047C9000031204F4FA
:1010E9007829120473D2AF9000041205C712047C48
:1010F900C003C002C00185128385138212047C12C9
:1011090004A59000031205C7E0FF851283851382A9
:1011190012047C90000CEF1201B490000BE4120150
:10112900B4900009E4F5F01202879000101205C787
:1011390012047C9000101205C712049C90000C1236
:1011490005C71203F090000C1205C7120414900091
:10115900071205C712047C9000071205C712049CE8
:101169009000131205C7E0FEA3E0FF9000131205DB
:10117900C7EEF0A3EFF090000A1205C7E0FEA3E066
:10118900FF90000A1205C7EEF0A3EFF090000312DA
:1011990005C7E0FF131313541FFE851283851382BD
:1011A90012047C90000EEE1201B490000E1201752B
:1011B900901E9B939000101201B4EF540790000DFC
:1011C9001201B490000D120175901E9B9390000FAF
:1011D9001201B4122EB885128385138212047C126F
:1011E9002E97C2AF85128385138212047C90000367
:1011F9001205C7E075F003A42433F81204737826A6
:1012090012046AC003C002C00185128385138212C9
:10121900047C9000031205247B007A007900C00346
:10122900C002C00185128385138212047C900006D6
:10123900120524782612046AE94A4B601A8512833A
:1012490085138212047CC003C002C00178261204EF
:101259006A90000612052485128385138212047C84
:101269007826120473900010120175782346F690BF
:10127900000E12017524FBF582E43400F583C08366
:10128900C082E0FF85128385138212047C90000FCF
:10129900120175FEEF4ED082D083F0D2AF7F00806D
:0512A90004D2AF7F46F6
:0612AE009000150205A3EB
:0F12B40090FFFD1205A312049C90FFFD1205A3ED
:1012C3009000061205C712047C9000061205C7128F
:1012D300049C90000C1205C7E0FEA3E0FF90000CF5
:1012E3001205C7EEF0A3EFF09000091205C7120430
:1012F3007C85128385138212049C85128385138255
:10130300E475F001120485740F1201A29000031218
:1013130005C712047CAF01851283851382E475F03F
:1013230001120485EF1201A29000031205C71204F3
:101333007CEAFF851283851382E475F0011204852C
:10134300EF1201A2851283851382E475F001120462
:1013530085740A1201A2851283851382E475F00154
:10136300120485740B1201A2851283851382E4751E
:10137300F001120485E41201A2851283851382759C
:10138300F001120485E41201A2851283851382758C
:10139300F001120485E41201A2851283851382757C
:1013A300F001120485E41201A29000061205C7128F
:1013B300047CAF01851283851382E475F001120466
:1013C30085EF1201A29000061205C712047CEAFF02
:1013D300851283851382E475F001120485EF1201EF
:1013E300A2851283851382E475F0011204857401CA
:1013F3001201A2851283851382E475F0011204851C
:1014030074041201A2851283851382E475F001121C
:10141300048574051201A2851283851382E475F095
:101423000112048574061201A2851283851382E4D6
:1014330075F00112048574071201A29000091205C8
:10144300C712047CE92440F9E43AFF85128385132B
:1014530082E475F001120485EF1201A290000912D3
:1014630005C712047CE92440F9E43AAF01851283ED
:10147300851382E475F001120485EF1201A2900036
:07148300091205C712047CE9
:06148A0090000E0205A314
:0100090022D4
:01000A0022D3
:102E970090FFFD1205A312049C85128385138212ED
:102EA700047C85128385138212049C90000302051B
:012EB700A377
:01006100227C
:102EB80090FFFD1205A312049C85128385138212CC
:102EC800047C85128385138212049C9000030205FA
:012ED800A356
:01006200227B
:01309C002211
:0F1D7D0090FFFD1205A312049C90FFFC1205A31A
:101D8C00C2AF90000D1205C7E0FF75F003A4243319
:101D9C00F812046AE94A4B6003021E91FBFA7901BE
:101DAC00EF75F003A42433F8120473D2AF90FFFE46
:101DBC001205A3E4F0A3F090000C1205C712047CEA
:101DCC0090FFFD1205A312049C90000C1205C71283
:101DDC00047C90FFFD1205A312049C90000C1205CC
:101DEC00C712047C1212B485128385138212049CD0
:101DFC0090FFFE1205A3E4F0A3F0FBFAF990FFFDAF
:101E0C001205A312049C90FFFC1205A312043900C6
:101E1C0000000090FFFE1205A3E4F0A3F0FBFAF91A
:101E2C0090FFFD1205A312049C90000E1205C71220
:101E3C00047C90001B1205C7E0FF1210A290000357
:101E4C001205C7EFF09000031205C7E07012C2AF85
:101E5C00784E06D2AF7824E6B40120122618801BE7
:101E6C00C2AF7B007A00790090000D1205C7E075B7
:101E7C00F003A42433F8120473D2AF9000031205BC
:091E8C00C7E0FF8004D2AF7F28FB
:061E950090000E0205A3FF
:1027020090FFFE1205A3EEF0A3EFF085128385136E
:1027120082E0FEA3E0FFD39400EE94004050C2AFEB
:10272200782C12046A90000E12017524FBF582E4E3
:102732003400F583C083C082E0FD782C12046A90D5
:10274200000F120175F4FCED5CD082D083F0700BA7
:10275200900010120175F4782356F6782C12046A50
:10276200900009EE8FF0120287D2AF122618900065
:04277200020205A3B7
:102B4A00120061782C088683088682A3E0F8A3E045
:102B5A00F988838982E0FD7851A308E0F6DDFA88D6
:102B6A0081A3E0F512A3E0F51378247601D0E0FF03
:102B7A00D0E0FED0E0FDD0E0FCD0E0FBD0E0FAD01F
:102B8A00E0F9D0E0F8D0D0D082D083D0F0D0E0D233
:022B9A00AF3258
:10285500C0E0C0F0C083C082C0D0E8C0E0E9C0E0FD
:10286500EAC0E0EBC0E0ECC0E0EDC0E0EEC0E0EFB8
:10287500C0E0E581C39451FD782C088683088682E3
:10288500A3E0F8A3E0F988838982EDF07851A308E5
:10289500E6F0DDFAA3E512F0A3E513F01200617886
:1028A5002C7930E7F60809E7F60809E7F6784F7955
:0628B50050E7F6022B4D76
:0A306900E581C39404F58102287785
:03000B00022AF2D4
:102AF200C0E0C0F0C083C082C0D0E8C0E0E9C0E05E
:102B0200EAC0E0EBC0E0ECC0E0EDC0E0EEC0E0EF18
:102B1200C0E0C28C758CDC758A00D28C12305B12DC
:102B2200215C122776D0E0FFD0E0FED0E0FDD0E0BD
:102B3200FCD0E0FBD0E0FAD0E0F9D0E0F8D0D0D081
:082B420082D083D0F0D0E03214
:03002300022B9C11
:102B9C00C2AFC0E0C0F0C083C082C0D0E8C0E0E9E2
:102BAC00C0E0EAC0E0EBC0E0ECC0E0EDC0E0EEC09D
:102BBC00E0EFC0E012305B120000122776D0E0FF8D
:102BCC00D0E0FED0E0FDD0E0FCD0E0FBD0E0FAD0CD
:102BDC00E0F9D0E0F8D0D0D082D083D0F0D0E0D2E1
:022BEC00AF3206
:10241600022223E493A3F8E493A34003F68001F297
:1024260008DFF48029E493A3F85407240CC8C333C7
:10243600C4540F4420C8834004F456800146F6DF96
:10244600E4800B0102040810204080902372E47E91
:10245600019360BCA3FF543F30E509541FFEE4938B
:10246600A360010ECF54C025E060A840B8E493A352
:10247600FAE493A3F8E493A3C8C582C8CAC583CA7D
:10248600F0A3C8C582C8CAC583CADFE9DEE780BE35
:0124090000D2
:10006600E709F608DFFA8046E709F208DFFA803E7C
:1000760088828C83E709F0A3DFFA8032E309F60869
:10008600DFFA8078E309F208DFFA807088828C83D1
:10009600E309F0A3DFFA806489828A83E0A3F60885
:1000A600DFFA805889828A83E0A3F208DFFA804C5F
:1000B60080D280FA80C680D4806980F28033801036
:1000C60080A680EA809A80A880DA80E280CA80339F
:1000D60089828A83ECFAE493A3C8C582C8CCC58317
:1000E600CCF0A3C8C582C8CCC583CCDFE9DEE780E7
:1000F6000D89828A83E493A3F608DFF9ECFAA9F066
:10010600EDFB2289828A83ECFAE0A3C8C582C8CCBB
:10011600C583CCF0A3C8C582C8CCC583CCDFEADED4
:10012600E880DB89828A83E493A3F208DFF980CC36
:1001360088F0EF60010E4E60C388F0ED2402B4042F
:100146000050B9F582EB2402B4040050AF232345D6
:0601560082239000B67345
:10015C00BB010689828A83E0225002E722BBFE02A1
:09016C00E32289828A83E49322D4
:10017500BB010CE58229F582E5833AF583E022503F
:1001850006E92582F8E622BBFE06E92582F8E22289
:0D019500E58229F582E5833AF583E49322A3
:1001A200BB010689828A83F0225002F722BBFE013C
:0201B200F32236
:1001B400F8BB010DE58229F582E5833AF583E8F081
:1001C400225006E92582C8F622BBFE05E92582C82D
:0201D400F22215
:1001D600C5F0F8A3E028F0C5F0F8E58215827002B4
:0601E6001583E038F02251
:1001EC00A3F8E0C5F025F0F0E582158270021583C6
:0601FC00E0C838F0E82223
:10020200BB0110E58229F582E5833AF583E0F5F03A
:10021200A3E0225009E92582F886F008E622BBFE17
:100222000AE92582F8E2F5F008E222E5832AF5835D
:08023200E993F5F0A3E9932222
:10023A00BB010DC58229C582C5833AC5830201D691
:10024A005011C58229F808E5F026F618F5F0E5827E
:10025A0036F622BBFE11C58229F808E225F0F5F030
:10026A00F218E23582F222F8E58229F582E5832A3C
:0D027A00F58374019325F0F5F0E49338222C
:10028700F8BB0111E58229F582E5833AF583E8F0A9
:10029700E5F0A3F0225009E92582C8F608A6F02266
:0D02A700BBFE09E92582C8F2E5F008F2224D
:1002B400E88FF0A4CC8BF0A42CFCE98EF0A42CFCE9
:1002C4008AF0EDA42CFCEA8EF0A4CDA8F08BF0A467
:1002D4002DCC3825F0FDE98FF0A42CCD35F0FCEBC6
:1002E4008EF0A4FEA9F0EB8FF0A4CFC5F02ECD398B
:0F02F400FEE43CFCEAA42DCE35F0FDE43CFC22F8
:1003030075F008758200EF2FFFEE33FECD33CDCCB1
:1003130033CCC58233C5829BED9AEC99E582984034
:100323000CF582EE9BFEED9AFDEC99FC0FD5F0D611
:10033300E4CEFBE4CDFAE4CCF9A88222B800C1B93B
:100343000059BA002DEC8BF084CFCECDFCE5F0CB79
:10035300F97818EF2FFFEE33FEED33FDEC33FCEBB2
:1003630033FB10D703994004EB99FB0FD8E5E4F96D
:10037300FA227818EF2FFFEE33FEED33FDEC33FC5A
:10038300C933C910D7059BE99A4007EC9BFCE99A4E
:10039300F90FD8E0E4C9FAE4CCFB2275F010EF2F93
:1003A300FFEE33FEED33FDCC33CCC833C810D70793
:1003B3009BEC9AE899400AED9BFDEC9AFCE899F8CE
:0E03C3000FD5F0DAE4CDFBE4CCFAE4C8F92261
:1003D100E8600FECC313FCED13FDEE13FEEF13FF0A
:0303E100D8F1222E
:0C03E400E6FC08E6FD08E6FE08E6FF2245
:0C03F000E0FCA3E0FDA3E0FEA3E0FF2280
:0C03FC00E0F8A3E0F9A3E0FAA3E0FB2284
:0C040800ECF608EDF608EEF608EFF62220
:0C041400ECF0A3EDF0A3EEF0A3EFF0225B
:10042000D083D082E493F608740193F608740293A3
:09043000F608740393F6740473DA
:10043900A8828583F0D083D082120450120450120E
:100449000450120450E473E493A3C583C5F0C58333
:10045900C8C582C8F0A3C583C5F0C583C8C582C80D
:010469002270
:09046A00E6FB08E6FA08E6F922B7
:09047300EBF608EAF608E9F622AE
:09047C00E0FBA3E0FAA3E0F92281
:10048500F8E0FBA3A3E0F925F0F0E5821582700200
:070495001583E0FA38F022A4
:09049C00EBF0A3EAF0A3E9F02261
:1004A500BB011A89828A83D0F0D0E0F8D0E0F9D078
:1004B500E0FAD0E0FBE8C0E0C0F002049C5016E989
:1004C500F8D083D082D0E0F9D0E0FAD0E0FBC0824A
:1004D500C083020473BBFE16E9F8D083D082D0E056
:0F04E500F9D0E0FAD0E0FBC082C0830205DD222F
:1004F400BB010DE58229F582E5833AF58302047C8C
:100504005007E92582F802046ABBFE07E92582F850
:100514000205D4E58229F582E5833AF5830205E6EE
:10052400BB0120E58229F582E5833AF583D0F0D03A
:10053400E0F8D0E0F9D0E0FAD0E0FBE8C0E0C0F0A9
:1005440002049C5018E92582F8D083D082D0E0F9C7
:10055400D0E0FAD0E0FBC082C083020473BBFE1873
:10056400E92582F8D083D082D0E0F9D0E0FAD0E057
:09057400FBC082C0830205DD22F8
:10057D00D083D082F8E4937012740193700DA3A30D
:10058D0093F8740193F5828883E473740293686021
:06059D00EFA3A3A380DF21
:1005A300E5132582F582E5123583F583B5120485BB
:1005B30082132210AF06858213F51222858213F56A
:0405C30012D2AF227F
:0D05C700E5132582F582E5123583F58322C8
:100AAC00E50D2461F582E43402F583E0050D229016
:100ABC00025E301003900261E475F00112048502AD
:100ACC00015C2009E97F2ED2098018EF540F249085
:100ADC00D43440D4FF300D0BEF24BFB41A005003B4
:100AEC002461FFE50E6002150E0511E5117002057B
:100AFC001030100E90025EE475F001120485EF02C6
:100B0C0001A2022E707403D2108003E4C210F50D02
:100B1C0090025E12049CE4F50EF510F511E50E60E2
:100B2C00077F20120AEF80F5750FFFC20AC209C2B7
:100B3C000BC20CC20EC20FC211120ABBFF700D30D9
:100B4C0010057F00120B00AF11AE1022B4255FC24E
:100B5C00D5C20D120ABBFF24D0B40A00501A75F08E
:100B6C000A780E30D50508B6FF0106C6A426F62075
:100B7C00D5047002D20C80D924CFB41A00EF5004E3
:100B8C00C2E5D20D020D01D20A80C6D20980C0D2B4
:100B9C000B80BCD2D580BAD20E80B47F20120AEF63
:100BAC00200B077401B50E0040F1120AACFF120ABB
:100BBC00EF020B29D211D20F8095120AACFB120A4C
:100BCC00ACFA120AACF94A4B700679D27A0D7BFF5B
:100BDC00200B2EE50E602A7E008E8275830012019A
:100BEC007560060EEE650F70F0C2D5EBC0E0EAC082
:100BFC00E0E9C0E0EE120D48D0E0F9D0E0FAD0E028
:100C0C00FB12015CFF60AAEBC0E0EAC0E0E9C0E0C7
:100C1C00120AEFD0E02401F9D0E03400FAD0E0FB66
:100C2C00E50F0460DCD50FD980877BFF7A0D794402
:100C3C00D20B809C791080027908C20FC2118008F7
:100C4C00D2D5790A8004790AC2D5E50F047002F571
:100C5C000FE4FAFDFEFF120AACFC7B08200A13120B
:100C6C000AACFD7B1030090A120AACFE120AACFF6A
:100C7C007B20EC3382D592D55013C3E43009069F08
:100C8C00FFE49EFEE4200A039DFDE49CFCE4CBF80B
:100C9C00C20AEC700CCFCECDCCE824F8F870F380FF
:100CAC0017C3EF33FFEE33FEED33FDEC33FCEB33C8
:100CBC00FB994002FB0FD8E9EB300A05F8D0E0C4F1
:100CCC0048B20AC0E00AEC4D4E4F78207B0070C24F
:100CDC00EAB50F0040BCC0E0120D4AD0F0D0E020C5
:100CEC000A04C4C0E0C4B20AC0F0120AD8D0F0D5CD
:100CFC00F0EB020B2912057D0BC6530C40580B97D9
:100D0C004C0B93420C444F0C4C440C4C490BAC43D5
:080D1C000C52550C36460C3652
:100D2400450C36470DF2500B9B2D0B9F2E0BC22BFF
:100D34000BA3230BC0200DDB2A0B5B4800000BBA6E
:100D44003F3F3F00790AA2D5200C14300E09B91098
:100D5400020404B9080104A2D5200F0250010420A2
:100D64000B68920BB50E005034C0E07F20300C1994
:100D74007F30A20B720F720E500F120DA1C20BC264
:100D84000FC20EC2117F30800F300E03E9C0E01293
:100D94000AEF300E03D0E0F9D0E0B50ECC300E17D8
:100DA4007F30B9100C120AEF7F58300D077F78801E
:100DB40003B90803120AEF300B057F2D020AEF7FF7
:100DC400202011F87F2B200FF322920B80CF286E66
:100DD400756C6C2900D20A120AAC300AF8C20A787F
:100DE4000E30D50108F6020B5B2D50434958120A08
:100DF400AC2403B405004001E4900DED93120AE025
:0D0E0400743A120AE0D20C750E04020C4084
:0905D400E2FB08E2FA08E2F92258
:0905DD00EBF208EAF208E9F2224F
:0C05E600E493FB740193FA740293F92271
:102E7000EFB40A07740D122E7B740A309811A899CA
:102E8000B8130CC2983098FDA899C298B811F630C2
:072E900099FDC299F599229A
:00000001FF
